:1000000040310020A56A0000D9BF0000916A0000BD
:10001000916A0000916A0000916A000000000000EF
:100020000000000000000000000000001D6C000047
:10003000916A000000000000B96B0000916A0000A6
:10004000E16D0000E16D0000E16D0000E16D000078
:10005000E16D0000E16D0000E16D0000E16D000068
:10006000E16D0000E16D0000E16D0000E16D000058
:10007000E16D0000E16D0000E16D0000E16D000048
:10008000E16D0000E16D0000E16D0000E16D000038
:10009000E16D0000E16D0000E16D0000E16D000028
:1000A000E16D0000E16D0000E16D0000E16D000018
:1000B000E16D0000E16D0000E16D0000E16D000008
:1000C000E16D0000E16D0000E16D0000E16D0000F8
:1000D000E16D0000E16D0000E16D0000E16D0000E8
:1000E000E16D0000E16D0000E16D0000E16D0000D8
:1000F000E16D0000E16D0000E16D0000E16D0000C8
:1001000081F0004102E000BF83F0004330B54FEAC8
:1001100041044FEA430594EA050F08BF90EA020F35
:100120001FBF54EA000C55EA020C7FEA645C7FEAC8
:10013000655C00F0E2804FEA5454D4EB5555B8BFEB
:100140006D420CDD2C4480EA020281EA030382EA5C
:10015000000083EA010180EA020281EA0303362DEE
:1001600088BF30BD11F0004F4FEA01314FF4801CC1
:100170004CEA113102D0404261EB410113F0004FD3
:100180004FEA03334CEA133302D0524263EB43038A
:1001900094EA050F00F0A780A4F10104D5F1200E28
:1001A0000DDB02FA0EFC22FA05F2801841F1000183
:1001B00003FA0EF2801843FA05F359410EE0A5F157
:1001C00020050EF1200E012A03FA0EFC28BF4CF088
:1001D000020C43FA05F3C01851EBE37101F000453E
:1001E00007D54FF0000EDCF1000C7EEB00006EEB4B
:1001F0000101B1F5801F1BD3B1F5001F0CD34908D5
:100200005FEA30004FEA3C0C04F101044FEA44522B
:1002100012F5800F80F09A80BCF1004F08BF5FEAB2
:10022000500C50F1000041EB045141EA050130BD92
:100230005FEA4C0C404141EB0101013C28BFB1F5A4
:10024000801FE9D291F0000F04BF01460020B1FAEF
:1002500081F308BF2033A3F10B03B3F120020CDAC2
:100260000C3208DD02F1140CC2F10C0201FA0CF0A0
:1002700021FA02F10CE002F11402D8BFC2F1200C05
:1002800001FA02F120FA0CFCDCBF41EA0C019040BB
:10029000E41AA2BF01EB0451294330BD6FEA040404
:1002A0001F3C1CDA0C340EDC04F11404C4F12002EF
:1002B00020FA04F001FA02F340EA030021FA04F301
:1002C00045EA030130BDC4F10C04C4F1200220FA58
:1002D00002F001FA04F340EA0300294630BD21FA96
:1002E00004F0294630BD94F0000F83F4801306BF5C
:1002F00081F480110134013D4EE77FEA645C18BF50
:100300007FEA655C29D094EA050F08BF90EA020FE6
:1003100005D054EA000C04BF1946104630BD91EADE
:10032000030F1EBF0021002030BD5FEA545C05D1E1
:100330004000494128BF41F0004130BD14F5800420
:100340003CBF01F5801130BD01F0004545F0FE4194
:1003500041F470014FF0000030BD7FEA645C1ABFC9
:10036000194610467FEA655C1CBF0B46024650EA00
:10037000013406BF52EA033591EA030F41F400212C
:1003800030BD00BF90F0000F04BF0021704730B5B2
:100390004FF4806404F132044FF000054FF0000187
:1003A00050E700BF90F0000F04BF0021704730B548
:1003B0004FF4806404F1320410F0004548BF40421D
:1003C0004FF000013EE700BF42004FEAE2014FEA72
:1003D00031014FEA02701FBF12F07F4393F07F4F4D
:1003E00081F06051704732F07F4208BF704793F050
:1003F0007F4F04BF41F40021704730B54FF4607463
:1004000001F0004521F000411CE700BF50EA010265
:1004100008BF704730B54FF000050AE050EA01020E
:1004200008BF704730B511F0004502D5404261EB7E
:1004300041014FF4806404F132045FEA915C3FF4BF
:10044000D8AE4FF003025FEADC0C18BF03325FEA5C
:10045000DC0C18BF033202EBDC02C2F1200300FA0D
:1004600003FC20FA02F001FA03FE40EA0E0021FA32
:1004700002F11444BDE600BF4FEA4102B2F1E0438D
:1004800024BFB3F5001CDCF1FE5C0DD901F0004C7B
:100490004FEAC0024CEA5070B2F1004F40EB8300CB
:1004A00008BF20F00100704711F0804F21D113F1F7
:1004B0003872BCBF01F00040704741F480114FEA30
:1004C0005252C2F11802C2F1200C10FA0CF320FAB9
:1004D00002F018BF40F001004FEAC1234FEAD323D6
:1004E00003FA0CFC40EA0C0023FA02F34FEA430340
:1004F000CCE77FEA625307D150EA01331EBF4FF0C9
:10050000FE4040F44000704701F0004040F0FE40E3
:1005100040F40000704700BF80F0004002E000BFE0
:1005200081F0004142001FBF5FEA410392EA030FDE
:100530007FEA226C7FEA236C6AD04FEA1262D2EB28
:100540001363C1BFD218414048404140B8BF5B422D
:10055000192B88BF704710F0004F40F4000020F0C6
:100560007F4018BF404211F0004F41F4000121F0DC
:100570007F4118BF494292EA030F3FD0A2F1010226
:1005800041FA03FC10EB0C00C3F1200301FA03F164
:1005900000F0004302D5494260EB4000B0F5000F87
:1005A00013D3B0F1807F06D340084FEA310102F146
:1005B0000102FE2A51D2B1F1004F40EBC25008BFF8
:1005C00020F0010040EA03007047490040EB0000C2
:1005D000013A28BFB0F5000FEDD2B0FA80FCACF1C3
:1005E000080CB2EB0C0200FA0CF0AABF00EBC250F0
:1005F00052421843BCBFD0401843704792F0000FDE
:1006000081F4000106BF80F400000132013BB5E730
:100610004FEA41037FEA226C18BF7FEA236C21D0A6
:1006200092EA030F04D092F0000F08BF084670470B
:1006300090EA010F1CBF0020704712F07F4F04D1D9
:10064000400028BF40F00040704712F100723CBFEC
:1006500000F50000704700F0004343F0FE4040F416
:10066000000070477FEA226216BF08467FEA2363D4
:100670000146420206BF5FEA412390EA010F40F4BF
:10068000800070474FF0000304E000BF10F000430B
:1006900048BF40425FEA000C08BF704743F09643F2
:1006A00001464FF000001CE050EA010208BF70470D
:1006B0004FF000030AE000BF50EA010208BF704794
:1006C00011F0004302D5404261EB41015FEA010CA9
:1006D00002BF84460146002043F0B64308BFA3F1A1
:1006E0008053A3F50003BCFA8CF2083AA3EBC25383
:1006F00010DB01FA02FC634400FA02FCC2F12002A2
:10070000BCF1004F20FA02F243EB020008BF20F0D8
:100710000100704702F1200201FA02FCC2F120023E
:1007200050EA4C0021FA02F243EB020008BF20EA33
:10073000DC7070474FF0FF0C1CEAD0521EBF1CEA61
:10074000D15392EA0C0F93EA0C0F6FD01A4480EA4F
:10075000010C400218BF5FEA41211ED04FF0006338
:1007600043EA501043EA5111A0FB01310CF0004064
:10077000B1F5000F3EBF490041EAD3715B0040EA8A
:10078000010062F17F02FD2A1DD8B3F1004F40EB5A
:10079000C25008BF20F00100704790F0000F0CF02D
:1007A000004C08BF49024CEA502040EA51207F3AF1
:1007B000C2BFD2F1FF0340EAC250704740F40000CC
:1007C0004FF00003013A5DDC12F1190FDCBF00F0BD
:1007D00000407047C2F10002410021FA02F1C2F16B
:1007E000200200FA02FC5FEA310040F1000053EA07
:1007F0004C0308BF20EADC70704792F0000F00F055
:10080000004C02BF400010F4000F013AF9D040EA5A
:100810000C0093F0000F01F0004C02BF490011F4EE
:10082000000F013BF9D041EA0C018FE70CEAD153EC
:1008300092EA0C0F18BF93EA0C0F0AD030F0004C6C
:1008400018BF31F0004CD8D180EA010000F0004020
:10085000704790F0000F17BF90F0004F084691F0DE
:10086000000F91F0004F14D092EA0C0F01D1420218
:100870000FD193EA0C0F03D14B0218BF084608D1E1
:1008800080EA010000F0004040F0FE4040F400002B
:10089000704740F0FE4040F4400070474FF0FF0CBE
:1008A0001CEAD0521EBF1CEAD15392EA0C0F93EA05
:1008B0000C0F69D0A2EB030280EA010C49024FEA57
:1008C000402037D04FF0805343EA111143EA101310
:1008D0000CF000408B4238BF5B0042F17D024FF4C8
:1008E000000C8B4224BF5B1A40EA0C00B3EB510FA3
:1008F00024BFA3EB510340EA5C00B3EB910F24BF8C
:10090000A3EB910340EA9C00B3EBD10F24BFA3EB10
:10091000D10340EADC001B0118BF5FEA1C1CE0D1D8
:10092000FD2A3FF650AF8B4240EBC25008BF20F08B
:10093000010070470CF0004C4CEA50207F32C2BFDF
:10094000D2F1FF0340EAC250704740F400004FF07C
:100950000003013A37E792F0000F00F0004C02BFAD
:10096000400010F4000F013AF9D040EA0C0093F077
:10097000000F01F0004C02BF490011F4000F013BD1
:10098000F9D041EA0C0195E70CEAD15392EA0C0F39
:1009900008D142027FF47DAF93EA0C0F7FF470AF71
:1009A000084676E793EA0C0F04D14B023FF44CAFB4
:1009B00008466EE730F0004C18BF31F0004CCAD149
:1009C00030F000427FF45CAF31F000437FF43CAF85
:1009D0005FE700BF4FF0FF3C06E000BF4FF0010CA7
:1009E00002E000BF4FF0010C4DF804CD4FEA400289
:1009F0004FEA41037FEA226C18BF7FEA236C11D0D3
:100A000001B052EA530C18BF90EA010F58BFB2EB85
:100A1000030088BFC81738BF6FEAE17018BF40F005
:100A2000010070477FEA226C02D15FEA402C05D1B9
:100A30007FEA236CE4D15FEA412CE1D05DF8040B3E
:100A4000704700BF844608466146FFE70FB5FFF7D1
:100A5000C9FF002848BF10F1000F0FBD4DF808ED89
:100A6000FFF7F4FF0CBF012000205DF808FB00BF7A
:100A70004DF808EDFFF7EAFF34BF012000205DF8D4
:100A800008FB00BF4DF808EDFFF7E0FF94BF012021
:100A900000205DF808FB00BF4DF808EDFFF7D2FF1E
:100AA00094BF012000205DF808FB00BF4DF808ED61
:100AB000FFF7C8FF34BF012000205DF808FB00BF2E
:100AC0004FEA4002B2F1FE4F0FD34FF09E03B3EB5B
:100AD00012620DD94FEA002343F0004310F0004F9B
:100AE00023FA02F018BF404270474FF000007047F1
:100AF00012F1610F01D1420205D110F0004008BF90
:100B00006FF0004070474FF0000070477BB972B93A
:100B10000029BEBF00204FF0004106E008BF0028BA
:100B20001CBF6FF000414FF0FF3000F057B8ADF13F
:100B3000080C6DE904CE002909DB002B1ADB00F05C
:100B40004FF8DDF804E0DDE9022304B070474042CD
:100B500061EB4101002B1BDB00F042F8DDF804E003
:100B6000DDE9022304B0404261EB4101524263EBF4
:100B700043037047524263EB430300F031F8DDF862
:100B800004E0DDE9022304B0404261EB410170471B
:100B9000524263EB430300F023F8DDF804E0DDE9A3
:100BA000022304B0524263EB4303704753B94AB97E
:100BB000002908BF00281CBF4FF0FF314FF0FF3065
:100BC00000F00CB8ADF1080C6DE904CE00F008F8A7
:100BD000DDF804E0DDE9022304B07047704700BF90
:100BE0002DE9F04786468C460846089E1546744611
:100BF0001946002B40F0C2808542B2FA82F245D9F4
:100C00004AB1C2F1200300FA02FC2EFA03F3954028
:100C100043EA0C0C94404FEA154EA8B2BCFBFEF818
:100C2000230C0EFB18CC08FB00F943EA0C43994552
:100C300028D9EB1808F1FF3704D2994502D9A8F159
:100C400002072B44A3EB0903A4B2B3FBFEFC0EFB8B
:100C50001C330CFB00F044EA0344A04214D92C19C5
:100C60000CF1FF3304D2A04202D9ACF102032C44B0
:100C7000241A43EA07401EB1D44000233460736055
:100C8000BDE8F0874746DDE76346F1E792BB431BCB
:100C900001214FEA154EAFB2B3FBFEFC200C0EFB58
:100CA0001C330CFB07F840EA0343984562D9EB1864
:100CB0000CF1FF3004D2984502D9ACF102002B446C
:100CC000A3EB0803A4B2B3FBFEFC0EFB1C330CFB2E
:100CD00007F744EA0344A7424ED92C190CF1FF331D
:100CE00004D2A74202D9ACF102032C44E41B43EA2C
:100CF0000040C0E7C2F1200320FA03F19540904084
:100D00002EFA03F303434FEA154EAFB2B1FBFEFCDC
:100D10000EFB1C10190C0CFB07F841EA004188453A
:100D200004FA02F422D969180CF1FF3004D2884584
:100D300002D9ACF102002944A1EB08019BB2B1FB3E
:100D4000FEFC0EFB1C110CFB07F743EA01439F421C
:100D50000ED9EB180CF1FF3104D29F4202D9ACF14D
:100D600002012B44DB1B41EA004192E76046E3E7C6
:100D70006146F7E76046A3E76346B7E7834206D9D3
:100D800016B9002108467BE7C6E900E0F9E7B3FAA7
:100D900083F78FB9834201D3724508D8BEEB0204B2
:100DA00060EB030301209C461EB9002168E738462A
:100DB000FAE7C6E9004CF8E7C7F1200CBB4022FA7D
:100DC0000CF41C432EFA0CF120FA0CF3B84001434A
:100DD0004FEA14490EFA07F5B3FBF9F81FFA84FE3F
:100DE00009FB18300B0C08FB0EFA43EA00439A4546
:100DF00002FA07F240D9E31808F1FF3004D29A450D
:100E000002D9A8F102002344A3EB0A0389B2B3FB81
:100E1000F9F809FB183308FB0EFE41EA03418E4541
:100E20002CD9611808F1FF3304D28E4502D9A8F1FC
:100E30000203214443EA0040A0FB0298A1EB0E010B
:100E40004145CE46434602D306D14D4504D2B9EBC7
:100E5000020E68EB04030138002EA6D0B5EB0E029B
:100E600061EB030101FA0CFC22FA07F34CEA0303DD
:100E7000F940C6E9003198E74046C5E74346D9E75F
:100E800030F000422DE9F84F0146034604D1BDE899
:100E9000F84F01200AF094B8002803DABDE8F84FB3
:100EA0000AF096B8B0F1FF4F03DBFFF73BFBBDE85C
:100EB000F88FB0F5000F35DA4FF09841FFF73AFCA4
:100EC0006FF018020346C3F31604DE15764B234475
:100ED00003F400007F3E80F07E5016444FF07E51B8
:100EE000204306EBD356FFF71BFB704B04F10F02B8
:100EF00013400546002B3ED10021FFF7AFFD98B10E
:100F0000002E00F0C8803046FFF7C0FB6849054658
:100F1000FFF710FC674904462846FFF70BFC014623
:100F20002046C2E70022CEE75DA1D1E90001FFF72C
:100F3000A3FA2946FFF7FEFB01464FF07C50FFF76E
:100F4000EFFA294604462846FFF7F4FB01462046FF
:100F5000FFF7F0FB04460EB921466FE03046FFF77D
:100F600095FB53490746FFF7E5FB524906463846CD
:100F7000FFF7E0FB72E04FF08041FFF7D3FA014644
:100F80002846FFF78BFC81463046FFF77FFB49463A
:100F900080464846FFF7CEFB01468246FFF7CAFB74
:100FA0004549DFF818B10746FFF7C4FB4449FFF78E
:100FB000B9FA3946FFF7BEFB4249FFF7B3FA3946A3
:100FC000FFF7B8FB4049FFF7ADFA5146FFF7B2FB18
:100FD0003E4982463846FFF7ADFB3D49FFF7A2FA8E
:100FE0003946FFF7A7FB3B49FFF79CFA3946FFF765
:100FF000A1FB01465046FFF795FAC4F55713A344E9
:1010000003F5227343EA0B03002B074630DD4FF054
:101010007C512846FFF78EFB2946FFF78BFB0146E4
:1010200004463846FFF77EFA4946FFF783FB07463A
:1010300046B901462046FFF773FA01462846FFF7F6
:101040006FFA34E71A494046FFF774FB1949064620
:101050004046FFF76FFB3946FFF764FA014620462A
:10106000FFF75EFA2946FFF75BFA01463046E6E7EE
:1010700001462846FFF754FA4946FFF75BFB044652
:10108000002E3FF469AF0A494046FFF753FB094978
:10109000064640466CE7002009E700BFAFF300803A
:1010A000555555555555D53F20FB4A00F0FF7F005B
:1010B0008071313FD1F717379788173E305CCFFFEB
:1010C00025333A3E2549923EABAA2A3F4FD01C3EDB
:1010D000298E633ECDCCCC3E08B5054801F074F8AE
:1010E00005200BF0A4FFBDE80840002000F06EBF13
:1010F00000D027342DE98048424A43494348444DB3
:10110000BDB00AF07CFE002400F028FD4FF42470EE
:10111000002109F08EFF8DF87C40209420AB042242
:101120001FA9012000F0B8FD9DF8833001939DF8C0
:1011300082309DF88020009321469DF8813028461A
:101140000AF05DFE0134A420002109F072FF052C95
:10115000E4D1304800F05CFE01300CD12E480AF09A
:101160004EFE4FF40040002109F063FFF9E7212013
:10117000002109F05EFF00F055FF0028F7D00020A5
:1011800000F098FE013008D124480AF038FE4FF4F0
:101190000040002109F04DFFF9E7102001F002F8AE
:1011A000002000F099FF4220002109F042FF00F0EA
:1011B00039FF68B1002000F07DFE01300AD11848E7
:1011C0000AF01DFE4FF40040002109F032FFF9E75C
:1011D0002120E9E700F050FE014612480AF00FFE18
:1011E000032000F0CDFF104800F06EFE0446F8B179
:1011F0000E480AF004FE4FF40040002109F019FFE8
:10120000F9E700BF56DF00005FDF000063DF00008A
:1012100071DF0000D0DC000096DF0000A4DF0000DA
:10122000B1DF0000CADF000001020020DDDF0000A6
:10123000012000F085FFC34800F050FE4FF48040CD
:1012400000F056FE4FF4804000F064FE4FF47A70D8
:1012500000F032FF42F2283000F0C2FE204600F0DB
:10126000CFFE032000F018FEB7480AF0C8FD119425
:1012700009F0D1FE031B632B1C9040F24383119BAA
:10128000B24CB34EB348013300251193A37DB37024
:1012900084F84C5025852587A4F8485000F094FF29
:1012A0002A4631460C2000F047FE0C200122294638
:1012B00000F052FE284600F05FFE002840F0318129
:1012C00009F0A9FE05460E4600F08EFF000640F12B
:1012D0001A81802000F078FFFFF7FEFE9E4A1388F7
:1012E0000133138009F097FE4FF0000883461291F6
:1012F000C14609F090FE129BB0EB0B0061EB0301BD
:10130000142871F1000180F2F38000F06DFF4104B8
:10131000A06140F1E68058EA090303D109F07BFEA1
:10132000804689464FF4804000F04EFF00261FA8FB
:101330008DF87C6000F068FF1628014640F0CB80F5
:101340003246824800F0D8FE84498048A578A670CD
:101350000A220BF096FFA5700646002840F0BB80DD
:10136000FF2120A800F028FE042332464FEA022A7B
:1013700020AA4AEA166AD25C013B42EA0626524695
:10138000F4D220A800F00AFE00220423114620A86F
:101390000902C05C013B41EA126140EA0222F6D236
:1013A000B61A6AEB010A012E7AF10002D4F80A306B
:1013B000D4F80E50C0F28F80ED1A00F08C8000F04F
:1013C000ABFE514607463046FFF776F906463846EB
:1013D000FFF75CF94FF04A51FFF7ACF901464FF0C7
:1013E0007E50FFF79DF8002107462846FFF764F975
:1013F00001463846FFF79EF901463046FFF790F860
:101400004FF07C51FFF796F95549FFF793F955498D
:10141000FFF790F95449FFF78DF95449FFF780F829
:1014200000210546FFF724FB00B1002520A800F0AD
:1014300099FEBDF8BE00002800F0AA802B9E002E69
:1014400000F0A680FFF71EF907463046FFF71AF9AD
:101450004FF09041FFF76EF9394606463846FFF7E0
:1014600069F901463046FFF719FA09F051FD404984
:10147000FFF760F93F49FFF753F8074694F812A0C9
:101480006765BAF1020FA76500F287803A4B53F8FF
:101490002A6000213046FFF709FB00287AD0314648
:1014A0002846FFF73DF84FF07F5120F00040FFF74E
:1014B000FDFA00286ED03046FEF786FF0646284625
:1014C0000F46FEF781FF3246CDE900013B462B482F
:1014D00051460AF094FCFFF7FFFD94F84C30022BC4
:1014E00006D8A369264A13426ED0104600F06CFE5F
:1014F000A37D94F84C600133A375002E40F08680E4
:10150000002323650DE009F086FD401B61EB060119
:10151000332871F100010FDB1A480AF070FCFFF765
:10152000DBFD0D4B184A1B8812881199174803EBF5
:1015300043030AF064FCC1E12120002109F079FD98
:10154000C2E600BFFA010020ECDF000054050020D5
:10155000EE01002080D02734D6060020D8010020DC
:10156000C2A8892DC9E88E4D0000883FE5D0223EF3
:10157000000020413D8AE3422005002003E00000F6
:1015800000002210F7DF0000D40600207FE00000FA
:101590001A4F73E71A4B43F82A5094F84C30022B39
:1015A00099D8591C84F84C1004EB0311023304EB56
:1015B0000313012281F81CA00D621A81114A5F6099
:1015C00013880133138086E70F48034201D000F0EF
:1015D000FBFD58EA090304D02120002109F029FD70
:1015E00087E609F018FD129BB0EB0B0061EB0301DD
:1015F0000D2871F10001EFDB7AE700BF0000F0C2B7
:1016000020050020D406002000900534DFF8B0A2A9
:10161000002352461F4692F8281039B13CA8791C85
:1016200000EB8707106A47F8700CCFB20133D9B2CC
:101630008E4202F11002EED8002F00F0AD810DF1C4
:1016400080084FF000097A1E4A4500F268817B0845
:101650003CAA02EB830252F8705CFA070CD43CAA55
:1016600002EB8303284653F8741CFEF75BFF4FF030
:101670007C51FFF75FF805464FF000090027904BBB
:101680001297CB4693F82810A1B11A6A16932946EF
:1016900010461492FEF744FF20F000488949404666
:1016A000FFF704FA169B002800F059814FF0010261
:1016B00083F8292009F101095FFA89F18E4203F1CB
:1016C0001003DFD8BBF1000F09D000213846FFF727
:1016D000EDF920B112983946FFF7E0F80546012EE2
:1016E000774F40F05B8100233B65D4F850A0764CE7
:1016F000DFF8D881216A2846FEF712FF744960623C
:1017000083462562D8F80800FFF714F8714981462E
:101710005846FFF70FF801464846FEF703FF227FC1
:101720006D4944F82250531CDBB2072B28BF00231D
:101730002377637FC8F80800062B9CBF01336377CB
:101740005046FEF7F7FF01464FF07E50FEF7E8FEE9
:1017500062498146FFF78CF908B1DFF88091022ECB
:1017600040F07C815A494846FEF7E4FF81465C49D7
:101770004846FFF77DF908B1DFF8649159494846BA
:10178000FEF7D8FF98F80C30C8F804000646002B86
:1017900040F06A810123C8F8005088F80C30D8F86E
:1017A0000050DFF84491DFF84481D9F80010284652
:1017B000FEF7B6FE98F80030012B20F0004000F054
:1017C0006B81022B00F07B817BB9DFF824B14949A2
:1017D0008BF800303046FFF769F930B10123C9F8C2
:1017E00000508BF8003088F8003097F82830002B34
:1017F00000F06D81386AFEF7E7FDCDE9120197F838
:101800003830002B00F06881386BFEF7DDFDCDE944
:10181000140197F84830002B00F06381386CFEF714
:10182000D3FDCDE916015046FEF7CEFDCDE91801F6
:101830002846FEF7C9FD647FCDE91A019CB1072C4B
:1018400028BF07242049A20020A80BF004FD002790
:1018500004F1FF3B5F45C0F0498164083CAB03EBFA
:10186000840454F8705C214B1B780E93224B1B8828
:1018700003EB43030D93214B30461B880C93FEF77B
:10188000A3FDCDE90A012846FEF79EFDDDE91A34E5
:10189000CDE90634DDE91834CDE90434DDE9163448
:1018A000CDE90234DDE91434CDE90801CDE9003495
:1018B00011991348DDE912230AF0A1FA1C9C21E0DA
:1018C00054050020EC51383E2C050020B4050020C2
:1018D000CDCC4C3FCDCC4C3E000020409A99193ED7
:1018E000CDCC4C3D0000C842B0050020DF060020F2
:1018F000DE0600200000A042D6060020D40600200C
:101900001EE0000000F070FC894B184202D018461F
:1019100000F05AFCA420002109F08BFBA8E409F197
:101920000105EDB2C346BD4204D309F1010908F136
:10193000040889E65BF8043FD8F8001016921846B0
:1019400014911293FFF794F8169A28B1129B1499E8
:10195000C8F80030CBF800100135EDB2E3E7754967
:10196000169308F10040FEF7E5FE09F0D9F90146AB
:1019700080461498FEF7DEFE01461298FEF7D2FD6F
:10198000414612903846FEF7CDFD0BF10101169B42
:1019900007465FFA81FB8DE60025A0E6D4F820B06B
:1019A000D4F8308059464046FFF762F8C8B9D946A6
:1019B00059464046FFF77AF800B9D846032E12D0B0
:1019C00049464046FEF7ACFD5B49FEF7A9FD002104
:1019D0008046FFF74DF800287FF485AEC7F85080A9
:1019E00083E6C146E4E7D4F840B048465946FFF7DD
:1019F0005DF800B1D94659464046FFF739F800B9BD
:101A0000C34649465846FEF78BFD4B49FEF788FD15
:101A100000218046FFF72CF8B0B100233B65474812
:101A200000219AF81C20022A08D830F8123001331D
:101A30009BB2312B88BF002320F8123001310329DB
:101A40000AF1100AEDD150E63D49C4F850804046F5
:101A5000FFF70EF800283FF448AEE0E7012E7FF4D0
:101A600086AE4FF07C517EE63649D8F800B0484645
:101A7000FEF760FE3449FEF755FD5946814628467B
:101A8000FEF74EFD01464846FEF754FE5946FEF766
:101A900049FDC8F8000082E62B49FEF7E9FFA0B136
:101AA0002A493046FFF702F878B1294A1378013302
:101AB000DBB2052B13707FF698AE022393E625491F
:101AC000FEF7F4FF00283FF490AE00238BE6224B94
:101AD0000022CDE9122392E61F4B0022CDE9142308
:101AE00097E61D4B0022CDE916239CE67D1C5FFA8C
:101AF00085F920AB03EB89053CABC84603EB8707B0
:101B0000444501D84F46A5E655F804AB57F8701C7C
:101B10001D915046FEF7ACFF20B11D9947F870ACFF
:101B200045F8041C08F101085FFA88F8E8E700BFEF
:101B3000009027340000C0401B2FDD3DD806002058
:101B4000CDCCCC3E9999993ECDCC4C3D0000A042E5
:101B5000DE060020CDCC4C3E0000F0BF38B5234B54
:101B6000234818600BF07FFA20B92248BDE83840BE
:101B70000AF045B9204D214C2148224B28602360B2
:101B80000BF071FA08B92048F0E720680BF06BFA07
:101B90000028F8D02068062109F04DFA20680122BB
:101BA000062109F056FA2068132109F044FA20684A
:101BB0000122132109F04DFA2868192109F03BFA96
:101BC00028680022192109F044FA00214FF4A4707A
:101BD0000BF0DAFA28680122192109F03AFA4FF4D9
:101BE000A47000210BF0D0FA0848BFE7CC05002014
:101BF00040D7000097E00000C8050020C405002081
:101C0000ECD60000D0D60000A7E00000B8E000004D
:101C10002DE9F04100EB0208B8F5807FC4B004461E
:101C200015461F462DDC04AE024630460BF013FB72
:101C300025B12A46394630190BF00DFB124DCDF86F
:101C400008D0CDE900682868012600220621039605
:101C500009F0FFF90D4B186883680D491C6802AA4A
:101C60000023A047324604460621286809F0F1F90E
:101C70001CB1084821460AF0C2F8204644B0BDE82D
:101C8000F0814FF0FF34F8E7C4050020CC050020B8
:101C900018DC0000C7E000002DE9F0478418B4F517
:101CA000807FADF5087D054616461F4642DC0DF1E6
:101CB00020080246DFF884A040460BF0CCFA3246FA
:101CC00008EB050000210BF0D4FA0DF5907902AB7A
:101CD000CDE90084DAF80000CDF810D04FF001080B
:101CE00000220621CDE90583CDE90294CDF81C80C0
:101CF00009F0AFF9124B1868836812491C6804AAEE
:101D000006ABA047424604460621DAF8000009F077
:101D1000A0F944B10C4821460AF071F820460DF5AF
:101D2000087DBDE8F087324609EB050138460BF027
:101D300092FAF3E74FF0FF34F0E700BFC40500204C
:101D4000CC05002018DC0000DBE000002DE9FF419D
:101D500083688E685F690B6801934B68FC6B029324
:101D6000002202AB56210546A047044640BB95F928
:101D70005820AB68002A5B6937DBD3F83C80024609
:101D800003AB5E212846C04778BB039BE6B903F549
:101D9000783303F52073019332460121284609F078
:101DA0008CF9FC6B01AB002205212846A0470446B4
:101DB00030BB0346FE6B032223212846B04704466E
:101DC000204604B0BDE8F08101990F480F4AC91AB6
:101DD00081FB00010023FEF799FEB0F57F7FB8BFBD
:101DE0004FF47F70A0F57F76D6E7FC6B002ED8D13C
:101DF0003346324623212846A04704460028DFD038
:101E0000284609F086F9DBE740420F000098E00E13
:101E100073B5044618B94FF0FF3002B070BD0368C7
:101E2000134A144D002B08BF134642681A6082689B
:101E30005A602B60904700238DF803302B681B6895
:101E400004221E680DF1030101AB0120B047E368D5
:101E5000227C019E03EB82029342DCD053F8041BE8
:101E600008684C6870402040F6D12B689960D4E730
:101E700020020020D005002013B5064B18688368A7
:101E80001B6900221C6B019201AB1146A04701980F
:101E900002B010BDD005002010B4054B02461868F2
:101EA00083681B691C6B1521A446002310BC604786
:101EB000D0050020034B0146186882681269926AB7
:101EC000104700BFD0050020034B01461868826808
:101ED00012691268104700BFD0050020034B01466D
:101EE000186882681269D269104700BFD0050020C7
:101EF00013B5074BADF80600186883681B6900220C
:101F00001C6B1F210DF10603A04702B010BD00BFDE
:101F1000D005002013B5074BADF80600186883689C
:101F20001B6900221C6B21210DF10603A04702B0A2
:101F300010BD00BFD005002030B41346054A054649
:101F400010688268126954680A46A446294630BC63
:101F5000604700BFD005002030B41346054A05464F
:101F600010688268126994680A46A446294630BC03
:101F7000604700BFD005002013B5074B8DF8070060
:101F8000186883681B6900221C6B04210DF107038C
:101F9000A04702B010BD00BFD005002010B4054A14
:101FA0000346106882681269146B3721A446002228
:101FB00010BC6047D0050020034B014618688268BA
:101FC00012695269104700BFD0050020034B01463B
:101FD000186882681269526A104700BFD005002055
:101FE00013B5064B0190186883681B6900221C6BAF
:101FF000582101ABA04702B010BD00BFD0050020A2
:1020000013B5074BADF80600186883681B690022FA
:102010001C6B56210DF10603A04702B010BD00BF96
:10202000D005002013B5084B186883681B6900228F
:102030001C6B8DF807200DF107035F21A0479DF869
:10204000070002B010BD00BFD005002013B5084B3B
:10205000ADF80600186883681B6900221C6B8DF8B8
:10206000042001AB5921A0479DF8040002B010BD27
:10207000D005002013B5074BADF8040018688DF8A3
:10208000061083681B6900221C6B5A2101ABA04714
:1020900002B010BDD005002010B5064C0346014427
:1020A00010468B4200D110BD13F8012B4240A05CBA
:1020B000F7E700BFEEE0000013B5064B019018688B
:1020C00083681B6900221C6B122101ABA04702B080
:1020D00010BD00BFD005002013B5064B0190186855
:1020E00083681B6900221C6B432101ABA04702B02F
:1020F00010BD00BFD005002030B41346054A054688
:10210000106882681269D4680A46A446294630BC21
:10211000604700BFD005002013B5084B18688368DE
:102120001B6900221C6BADF806200DF1060330215F
:10213000A047BDF9060002B010BD00BFD0050020C9
:1021400013B5074B8DF80700186883681B690022D8
:102150001C6B2B210DF10703A04702B010BD00BF7F
:10216000D005002010B4054A034610688268126941
:10217000146B3321A446002210BC6047D005002018
:1021800013B5074B8DF80700186883681B69002298
:102190001C6B5C210DF10703A04702B010BD00BF0E
:1021A000D005002013B5074B8DF807001868836829
:1021B0001B6900221C6B44210DF10703A04702B0EC
:1021C00010BD00BFD005002013B5064B0190186864
:1021D00083681B6900221C6B7F2101ABA04702B002
:1021E00010BD00BFD005002013B5064B18688368EA
:1021F0001B6900221C6B019201AB8121A047019851
:1022000002B010BDD005002037B50A4B044618684F
:1022100083681B6900221D6BADF8042001AB8DF8AB
:1022200006208521A8479DF80630BDF804002370DC
:1022300003B030BDD0050020B329024818BF0020EC
:10224000704700BFD405002037B50A4D0222294649
:10225000044609F0CEF800F00F0303330F2B28BF1C
:102260000F2300930222F0232946204609F065F847
:1022700003B030BD4000070008B50349032209F050
:10228000B8F8C0F3021008BD6000030070B5094E35
:102290000C4600223146054609F091F8000D000574
:1022A000C4F313030343314628460022BDE87040BF
:1022B00009F0F2BA0800010070B500220C464FF494
:1022C000A021054609F07BF80A4B0340E00748BF10
:1022D00043F48023A10748BF43F410436207284614
:1022E00048BF43F01203BDE8704000224FF4A02124
:1022F00009F0D2BAC00FE0FF70B50C4605460B6876
:102300000B49002209F0C8FA63680A4928460022EE
:1023100009F0C2FAA36808492846002209F0BCFA6D
:10232000E368064928460022BDE8704009F0B4BAC7
:102330000C0002001000020014000200180002004D
:1023400070B50C4605460B680B49002209F0A4FA4B
:1023500063680A492846002209F09EFAA3680849E2
:102360002846002209F098FAE36806492846002228
:10237000BDE8704009F090BA1C0002002000020085
:10238000240002002800020005292DE9F047044638
:1023900040D1264D264E274FDFF89C80DFF89C90D9
:1023A000DFF89CA0274B28492046002209F074FA48
:1023B000534620462549002209F06EFA4B46204636
:1023C0002349002209F068FA4346204621490022A9
:1023D00009F062FA3B4620461F49002209F05CFAE8
:1023E000334620461D49002209F056FA2B46204666
:1023F0001B49002209F050FA20461A4B1A490022C4
:1024000009F04AFA2046194B1949BDE8F047002265
:1024100009F042BA174D184FDFF86080DFF860907E
:10242000DFF860A0184B2E46BDE700BFF5CF0100D6
:10243000B5CF010036CF01007EC70100BEC6010046
:102440003EC40100FDC00100380003003C00030051
:102450004000030044000300480003004C00030058
:1024600050000300400200101C00030089A46D1BF3
:1024700020000300B5AF02007DAF02003EAF0200B6
:10248000FEA5020036AC0200FEA80200F7B51C460D
:1024900090F87630032B04EB02030F4614BF4FF481
:1024A00090114FF49811B3F5806F0546164606DA81
:1024B0007F2C06D813460097224608F077FF03B01A
:1024C000F0BD0B0C0022084909F0E6F90749234644
:1024D0000022284609F0E0F90097334600224FF425
:1024E000E8112846E9E700BF04001F0008001F00AC
:1024F000002302491A4609F0CFB900BF04000700C3
:1025000037B510230D4600930949FF2300220446E6
:1025100008F013FF022D2B464FF0000238BF0223B4
:102520002C21204603B0BDE8304009F0B5B900BF0A
:1025300024000F0070B50D4E04460D4601233146B0
:10254000002209F0B3F92B4620460949002209F080
:10255000ADF9314620460022022309F0A7F92046B2
:102560000449BDE87040002208F029BF08000B00B4
:1025700004000B0010000B00012910B504463DD1EA
:1025800033491823002209F091F940F20223002276
:102590004FF43021204609F089F9022300224FF43C
:1025A0003021204609F082F940F2F33300224FF443
:1025B0003021204609F07AF940F2F31300224FF45B
:1025C0003021204609F072F940F2013300224FF425
:1025D0003021204609F06AF940F20113204600221A
:1025E0004FF4302109F062F920464FF40073BDE842
:1025F000104000224FF4302109F058B940F2022374
:1026000000224FF4302109F051F9022300224FF447
:102610003021204609F04AF940F2F33300224FF40A
:102620003021204609F042F940F2F31300224FF422
:102630003021204609F03AF94FF4417300224FF45B
:102640003021204609F032F94FF48273C6E700BF0B
:1026500008000B0038B590F87630012B04460D4683
:102660001CD0032B23D115490022F02309F03DF99A
:1026700000224FF4F011204608F0B0FE2B7802043F
:102680004CBF43F0010303F0FE032B7094F873304A
:1026900083B900F07F00A4F8860038BD0749002206
:1026A0000F2309F022F900224FF4C011E3E70022C2
:1026B0004C21E1E7C0F30900EDE700BF2400010071
:1026C00037B5CB074CBF002310230C464CBF0093FB
:1026D000009305464CBFEF23FF2302224FF46021F5
:1026E00008F02BFE620885F87E400CD10A490123D0
:1026F000284609F0FAF895F87E3043F0020385F891
:102700007E3003B030BD044913462846002203B092
:10271000BDE8304009F0E9B828000100002370B599
:102720001A464FF42021044609F0C0F800230A4D50
:102730000A491A46204609F0D8F800231A462946C5
:10274000204609F0D2F8294620460223BDE8704011
:10275000002209F0CAB800BF04000A0014000A00F1
:1027600038B50D4D04460B4600220C4909F09EF881
:10277000294620468823002209F0B7F800231A468C
:102780002946204609F0B1F820460549BDE8384001
:10279000002208F02EBE00BF04000A000C000A0050
:1027A00008000A0070B5CBB205460C461646104923
:1027B000002209F07BF8334628460E49002209F032
:1027C00094F8FF2C98BF00230B4C88BF01235B01BA
:1027D0002146284643F09003002209F086F80023A2
:1027E000214628461A46BDE8704009F07EB800BF71
:1027F0000C000A0010000A0004000A0070B505462B
:102800000C46164640F20B110022FFF7CBFF4FF4A7
:1028100082712846FFF7A4FF4FF4827100F01F0277
:102820002846FFF7BFFFB5F87830234323F4006351
:102830009BB2A5F87830284600224FF4202109F0F9
:1028400035F8334628460349BDE87040002209F0B8
:102850004CB800BF14000A00F7B51C460B44B3F592
:10286000806F06460D4617461DDA7F2C09D8009268
:102870000B4622464FF4A01109F004F8002003B0E3
:10288000F0BD0A491423002209F006F8084923463E
:102890000022304609F000F800972B4600224FF442
:1028A000E8113046E8E74FF0FF30E8E704001F008A
:1028B00008001F0073B5294B29492A4E00220546FE
:1028C00008F0EAFF102300932549FF230022284641
:1028D00008F033FD0324142008F0CBFB002231461E
:1028E000284608F086FD01282FD0013C14F0FF0493
:1028F000F1D16FF0020400231A461949284608F066
:10290000F4FF184901230022284608F0EEFFF4B92D
:102910000123134900930222FF23284608F00DFDEE
:1029200011492246284608F04AFD6FF06046B04241
:1029300010D022460D49284608F041FDB04208BF9C
:102940006FF00404204602B070BD0024D3E76FF09E
:102950000204F7E76FF00304F4E700BF0100020090
:102960000C00040020000400140004001C000400FB
:1029700090F8A8308B4237B505460C4609D04B017C
:10298000DBB2009304491F23012208F0D6FC85F82E
:10299000A84003B030BD00BF100009002DE9F84386
:1029A00000224FF4F811044608F023FD00224421D0
:1029B0008046204608F003FD20F001060746334616
:1029C00000224421204608F067FF0023C4F8843029
:1029D00084F8883094F87D30C4F88C4003F0030309
:1029E000032B04F18009C4F8806007F4005504D17A
:1029F0001DB148F008085FFA88F87A0544BF04233F
:102A000084F8883018F0800F1CD00022482120461E
:102A100008F0E4FC00220346A4F884004821204684
:102A200008F044FF94F87C301BB1D4F880305B0789
:102A300004D4B4F8843003F460631BB1E3690BB1D0
:102A40004846984718F0010F07D007212046FFF7A6
:102A50008FFFE3680BB14846984718F0400F03D04A
:102A6000636A0BB1484698473F0408F0080312D543
:102A700094F83C20D0070ED51DBB002B7CD1002341
:102A800084F8883004F188012046FFF7E3FDB0FAAE
:102A900080F77F0923E025B94BB184F888502F4691
:102AA0001DE094F89050012D13D0002B62D118F046
:102AB000100F00F0B180A369002B77D048469847EB
:102AC00074E094F89050012DD9D0002B54D11D46BC
:102AD000D5E70027002B4AD184F888301F4694F8A8
:102AE0007630B3B159490022204608F082FC94F8B0
:102AF0007630032B08BFC0F30710C10748BF46F468
:102B00008046820748BF46F40056430748BF46F454
:102B100080667003C4F8806032D594F8883043F042
:102B2000080384F88830F20042BF94F8883043F0FC
:102B3000100384F8883057BBB3043BD594F87D303C
:102B400003F00303032B35D194F88830A4F8867082
:102B500043F0020384F888302569002D68D194F889
:102B60007630002B4DD1002384F888309FE784F81D
:102B70008870B4E7002590E7002584F8885081E745
:102B80007105D0D594F8883043F00403C9E794F870
:102B90008830256943F0020384F888300023A4F8C4
:102BA0008630002D44D194F8763083BB002384F81E
:102BB000883031E006F480462E4304D004F18801C9
:102BC0002046FFF747FDB4F88630002BC4D194F8B7
:102BD0007D3003F00303032BBED0D4F8803023F400
:102BE000904343F48053C4F88030A3690BB1484646
:102BF000984794F87630002584F88850002B3FF4ED
:102C000056AF204608F07DFE84F888504FE72046F6
:102C100008F077FE84F8885018F0200F06D063691A
:102C20000BB148469847002384F88830BDE8F88304
:102C30004846A84794F8763013B1204608F061FE64
:102C4000002384F88830002FE6D130E7240001000B
:102C500007B590F876300091012B0BD0032B4FF085
:102C600005030BD104224FF4F01108F09FFB03B0D1
:102C70005DF804FB034905230022F6E700226421E6
:102C8000F3E700BF0400180070B500222C210446B1
:102C900008F095FB064905460122204608F0A9FBED
:102CA00000222B1A2C212046BDE8704008F0F4BD0C
:102CB0000400010002494FF40073002208F0F6BD41
:102CC0000400110011F01D03F7B5054601F00204E0
:102CD00053D011F0010725D0FCB1002300931A4610
:102CE0000D2108F0CFFD03224421284608F081FB86
:102CF00010F0080206D12E49284608F060FBB0F516
:102D0000502F43D10023284600931A46194608F055
:102D1000B9FD4FF0FF3003B0F0BD009423462246CA
:102D20000321DEE711F008060DD008F029FE2CB1D2
:102D300000973B463A460F212846D2E700942346A7
:102D400022460721F8E711F010030CD0FFF79CFF93
:102D500024B10096334632460E21EDE70094234617
:102D600022460521E8E71CB100931A461021B8E776
:102D70000094234622460921B3E711F020010CD02C
:102D800034B100931A46112108F07CFD0020C2E7FF
:102D90000094234622460B21F6E724B100910B460E
:102DA0000A460C21F0E70094234622460121EBE776
:102DB00030000F00024941F62203002208F076BDE0
:102DC00004001100012970B5044607D0142008F052
:102DD00050F92046BDE87040FFF76CBD0D49002258
:102DE00008F0FCFA0B4940F205134FF6FF72064655
:102DF000204608F02DFE142008F03BF92046FFF78E
:102E000059FD0449054600232046324608F020FEBD
:102E1000284670BD48000700F7B516461D464FF618
:102E2000FF7248F240030F461849044608F010FEAE
:102E3000AA1943F201039A4225DC7F2D11D800978D
:102E400033462A464FF4A811204608F0AFFA0F493E
:102E5000002347F6BF72204603B0BDE8F04008F0FB
:102E6000F7BD0B4915230022204608F015FD09493E
:102E70002B460022204608F00FFD00973346002223
:102E80004FF4E811E0E709F0E8F800BF0400110092
:102E900004001F0008001F002DE9F04F85B0022A32
:102EA000BDF838A09DF83C900646884600F2928016
:102EB0004A4931F812204A4913449BB203934FF612
:102EC000FF7248F2400308F0C3FD4546002757450E
:102ED00006D2039B03EB070B43F201039B450ADD7C
:102EE00030463F49002347F6BF7208F0B1FD00208D
:102EF00005B0BDE8F08FAAEB0704A4B2102C394945
:102F00004FF015034FF00002304628BF102408F0A0
:102F1000C3FC5B4634490022304608F0BDFC04EB9C
:102F200044035B00314A009201339BB200224FF40C
:102F3000E81130464FEA440B08F038FAB9F1000FB7
:102F400034D07B00002229490293104647F6FF7EC9
:102F500091F803C08B784FEA0C4C0CEB032C4B78A8
:102F60006344B3F5802FDFF888C0C3F3110338BF83
:102F70004FF0000CB9F1020F43EA0C0324D14CEAE4
:102F80005303DDF808C06044DFF868C06345B8BF8C
:102F900063460132734592B2A8BF73465A4528F87A
:102FA000103001F103011046D2D30AE02B460F4A3C
:102FB000062505FB043512F8011F03F8011B9D428D
:102FC000F9D13C44A7B282E7B9F1030F08BF4CEA3C
:102FD0009303D6E74FF0FF308AE700BF40DF0000E1
:102FE0000400110004001F0008001F00E00600207C
:102FF0000000FCFF0080FFFF012A18BFCA430B46F8
:1030000008BF4FF6FF7203491CBF002392B208F0BD
:103010001FBD00BF0C00050010B5044608494FF461
:10302000C0734FF6FF7208F013FD94F86C30054939
:1030300020464FF6E072BDE8104008F009BD00BF21
:1030400008000B001F00110010B504460021FFF717
:1030500093FA94F86C3013B12046FFF7DDFF204659
:103060000349BDE810401423012208F03EBC00BF14
:103070005000070070B5042304460D46002229497C
:1030800008F033FC28490022204608F098F9264928
:1030900002234FF0FF320646204608F0EAFC2D03DB
:1030A000204900236FF4C002204608F0E2FC45F0FE
:1030B000200300224FF40021204608F0EDFB0123FD
:1030C0006FF001024FF40021204608F0D2FC174DAA
:1030D00000222946204608F072F9C307F8D50022DD
:1030E0004FF00811204608F079F9002305461A46EA
:1030F00020464FF4002108F0F8FB00231A46204632
:10310000084908F0F2FB334620460749002208F040
:10311000C3FB2046034900236FF4C00208F0A9FC5A
:10312000284670BD3400070048000700040008006E
:103130002DE9F74F04460D469046994600224FF080
:103140001A130F46714908F0A7FB714B714A724977
:10315000204608F08EFC0123704900930022FF23D3
:10316000204608F0EAF86E490222204608F041F9AC
:10317000032821D16B490022204608F03AF940F09B
:10318000030368490646DBB20022204608F0ADFB87
:10319000654A66494FF40003204608F06AFC63491B
:1031A00000236FF40002204608F063FC5D493346BB
:1031B0000022204608F099FB5D4B5E49DFF878B1AC
:1031C0000022204608F068FB41F63C7300224FF4D1
:1031D0001021204608F060FB5849142301222046A4
:1031E00008F083FB56494FF460236FF47F022046BA
:1031F00008F03FFC534B544A5449204608F039FC30
:103200004FF080634FF0FF324FF4E021204608F08A
:1032100030FCEB0403F0807305F01F051D434C4A9E
:103220004C492B46204608F024FC4B494FF4805370
:103230004FF0FF32204608F01CFC354B00224FF4C3
:10324000E021204608F028FB404607F012FF002648
:103250004E4502D16FF001003AE04049002220467D
:1032600008F0C7F800223E498246204608F0C1F81F
:1032700000F00B020B2A2ED10AF04603462B2AD16E
:10328000284902234FF6FF72204608F0E1FB274948
:103290004FF480036FF40002204608F0EAFB234954
:1032A00000236FF48002204608F0E3FB00231A4657
:1032B0001949204608F0F0FA00231A4620464FF438
:1032C000E02108F0E9FA0C9B00201E70C4F8A4501D
:1032D00003B0BDE8F08F43075ABF6FEAD00000F09B
:1032E00001004FF0FF300744FB0403F0807307F048
:1032F0001F051D4317492B465A46204608F0B9FBC7
:10330000404607F0B6FE0136A2E700BF48000700BE
:1033100000C00504FF3FFDFB04000700140001008E
:1033200030000F0004001100FFFE7FFF08001100B5
:103330003400011C1C000700E0FFFFFE50000700E6
:1033400018000700FC00080000FEF7FF0800090055
:1033500000FF3F0004000900100009000C000900F4
:103360003C00070073B502220D464449044608F0AC
:1033700040F8012803D1002D60D100205AE0032835
:103380001FD1012DF9D0022D5BD1032300932046DC
:103390003B49FF23002207F0D0FF204639494FF474
:1033A00000036FF4807208F064FB00230093204652
:1033B00034497F232A4607F0C0FF2046FFF77AFCF6
:1033C000DBE7022838D1022DD7D0012D39D1204694
:1033D000FFF770FC0223012500930022FF23442104
:1033E000204607F0AAFF28490095FF232A462046D9
:1033F00007F0A3FF23490095FF232A46204607F044
:103400009CFF00222149204607F0F3FF8207B4D435
:103410001E4E3125142007F02CFE00223146204696
:1034200007F0E7FF8307A8D4013D15F0FF05F1D1B0
:103430006FF0010002B070BD03281BD8012DA2D18E
:10344000C5E70123009320460D49FF23002207F022
:1034500074FF20460B494FF400036FF4807208F0AC
:1034600008FB0023009307497F230222204607F030
:1034700064FF82E76FF00800DCE700BF30000F0058
:103480000400110008001100080009000C000900E8
:103490002DE9F047564FDFF85C910D461646394648
:1034A0000022044607F08BFF394680464FF47043F4
:1034B00020464FF0FF3208F0DCFA1823002249467C
:1034C000204608F0F3F92046252108F0FAF92046B5
:1034D000022108F0F6F920464FF4FE7108F0F1F9E8
:1034E000F1B2204641F4807108F0EBF920464FF428
:1034F000807108F0E6F92046002108F0E2F9204644
:10350000022108F0DEF920464FF4E07108F0D9F905
:10351000E9B2204641F4807108F0D3F9C5F30721E0
:10352000204641F4807108F0CCF9C5F307412046EC
:1035300041F4807108F0C5F9290E204641F48071EC
:1035400008F0BFF92046002108F0BBF920463A21D7
:1035500008F0B7F9204640F2FF1108F0B2F9204612
:103560004FF4857108F0ADF92046002108F0A9F963
:1035700020463A2108F0A5F9204640F2011108F052
:10358000A0F92046022300224FF4302108F08EF9E2
:1035900000231A464FF43021204608F087F9022014
:1035A00007F069FD20463A2108F08BF920464FF4D8
:1035B000817108F086F92046022300224FF4302161
:1035C00008F074F900231A4620464FF4302108F021
:1035D0006DF900231A464946204608F067F943462C
:1035E000394620460022BDE8F04708F055B900BF33
:1035F0004400070008000B00052905D140230549B8
:103600006FF4005208F035BA092902D14FF4015382
:10361000F5E7704708000B0010B590F86D20012AFF
:1036200004460CD149B2FFF7E7FF20460549BDE843
:1036300010404FF4C84348F2FF1208F009BAFEF7F1
:10364000A3FEF2E71800030070B511F0010605466D
:103650000C4624D04FF410736FF47C624FF4A02119
:1036600008F007FA4FF0FF3215494FF404032846DB
:1036700008F0FFF914F0020207D14FF488732846CE
:103680001049BDE8704008F007B90F4B0D49002202
:10369000284608F001F94FF488730022EFE733461B
:1036A0006FF47C624FF4A02108F0E3F9334628461A
:1036B0000449BDE870404FF6FF6208F0C9B900BF89
:1036C000040011001600110010010F0037B500238F
:1036D0001A460D461049044608F0DEF800231A4643
:1036E0004FF4E021204608F0D7F8062300930B4959
:1036F000FF230122204607F020FE55B108494FF074
:10370000E0534FF2FF02204603B0BDE8304008F01E
:10371000B0B903B030BD00BF480007000800110079
:10372000140007007F2A10B541EAC323044607D8D6
:1037300043EA0243BDE81040094A242108F099B940
:10374000803243EA02432421054A08F092F92046D8
:103750000022BDE810404FF4002107F04ABE00BF30
:1037600000F400FC73B504460E461546AAB91C4980
:103770004FF008234FF0FF3208F07BF918494FF063
:1037800060134FF0FF32204608F073F91549009599
:10379000F9230122204607F0D0FD134B4FF0FF32F2
:1037A0004FF4E021204608F064F9B6B10F49002239
:1037B000204607F004FE4FF2FF03034008BF4FF41A
:1037C00080530A4943F0012343F48033FF2220460B
:1037D00002B0BDE8704008F04CB902B070BD00BF47
:1037E0004800070008001100003C00021400070018
:1037F000024B03494FF0FF3208F03BB9003C000296
:103800000400070073B504460D46FFF7D3FA002203
:1038100011462046FFF7A6FF2046FFF7E9FF1549AE
:10382000154EC5F30B030022204608F03FF8032392
:1038300000931149FF230022204607F07EFD00225D
:103840003146204607F0D5FD10F00105F7D120469E
:10385000FEF74EFE29462046FFF738FF2046FFF7C9
:1038600029FA06492A46204607F0C3FD00F03F002A
:1038700002B070BD1C000800100008001C0007000A
:1038800070B5B1F8052005460C4662B90B780849B9
:1038900008F02BF8D4F80130064928460022BDE88C
:1038A000704007F0F9BF1146FFF7ACFFF2E700BF29
:1038B0001C0007000C0001002DE9F74311F004087B
:1038C00090F89C50044601F0080303D101F00C026B
:1038D0000C2A22D13BBB01F00C01A1F10C004642A5
:1038E00046414FF0010859490022204607F076FD75
:1038F000C10707461BD42046FEF7A6FC4FF005097A
:10390000C5B900225249204607F073FD820719D439
:1039100001212046FFF726FD85E033B90025284622
:1039200003B0BDE8F0830126DBE70126DBE74FF0BB
:103930000909E5E72946204607F011FD054600285C
:10394000DFD0ECE702223C21204607F052FD0306BF
:1039500066D5002302223C21009320467F2307F0F6
:10396000ECFC204608F0A2F8802302224421054600
:10397000204607F0BAFF802300930222FF233C2158
:10398000204607F0DAFC002DC9D1324918232A4617
:10399000204607F081FFE8232F492A46204607F0FA
:1039A0007BFFB4F8783003F0E003602B3DD0A02B10
:1039B0003ED0202B07D14FF4806328496FF4C052CA
:1039C000204608F056F82EB1254B26490022204605
:1039D00007F062FFB8F1000FA0D094F87E205208E3
:1039E00029D101232049204607F07FFF94F87E303B
:1039F00043F0020384F87E30C7F3C407093F0F2F5A
:103A000007D894F86D30012B494620461AD1FFF7AC
:103A1000F3FD0121204603B0BDE8F043FFF7D2B922
:103A2000204608F043F80546ADE74FF44063C4E78D
:103A30004FF4A053C1E713460B490022204607F07C
:103A400054FFD9E7FEF7A0FCE3E700BF1400010034
:103A50000C0009000C001F0010001F0008000B00E4
:103A600067070E04180007002800010070B5104B0E
:103A70000C4615460F490222064607F00DFF631E4D
:103A80000F2DA8BF0F25032B28BF04241023E340CC
:103A900030460949002207F0FFFE631E9B0005FA2D
:103AA00003F330460549BDE87040002207F0F4BE3C
:103AB0001408D200100011002800070018000800A8
:103AC00090F87D3063B390F89230013393FAA3F30A
:103AD000B3FA83F3013BDAB2072A1FD8114A01294E
:103AE00032F813309BBF4FF435625A431A01930CDE
:103AF0008CBFC2F30A02C2F3CA1202F5806288BF09
:103B0000DB09B2F5006F00D301331B0403F4FE039D
:103B1000054A064943F00A0307F0ABBF1023F4E758
:103B2000704700BF46DF0000E0FF80FF12000E007C
:103B300000042DE9F04700F47F002E4C40F007030D
:103B4000A3424FEA910643D82B4883424DD12B4BD9
:103B5000462500204FF0FF3A03F1FF3CD046FF27F7
:103B6000814607E0BE4502D277464FFA80FA01301F
:103B7000854216D01CF8013F994281EA03044FEABE
:103B8000930E2BD0A307F2D17645EBD3EFD9F145B5
:103B900038BF4FFA80F800F1010038BFF146854286
:103BA000E8D118EA0A0F20D45FFA88F8A8EB0A0ACD
:103BB000A6EB0903A7EB09075FFA8AFA0AFB03F3EE
:103BC000FFB293FBF7F3A8EB03085FFA88F807E06E
:103BD0000B48834209D10B4B4B25BAE75FFA80F8BB
:103BE00082F800800020BDE8F0874FF0FF30BDE88C
:103BF000F08700BF0100090007000500B4E20000E3
:103C0000070009001BE200002DE9F04F91F800E0E9
:103C10004F78CC78514D4FEA004CBE458878F0463D
:103C200028BFB846804528BF80460CF47F0CA045CD
:103C30004CF0070328BFA046AB421DD8484DAB420D
:103C40007AD1484D45261D234FF01C0BDFF8189103
:103C5000C34599F800A0DFF814811FD3BAF1000F13
:103C600074D198F800304FF0070C4FF0000A89F833
:103C700000A088F800A02CE03D4DAB425CD1DFF8FD
:103C8000E8903C4D99F800A04FF0100BC3454FF061
:103C90004A06DFF8D8804FF01103DFD288F80030F1
:103CA000BAF1000F52D1DFF8B4A04CF0010CD445AA
:103CB00049D0AAF5802AD445DFF8BCC004BF42260B
:103CC00065464FF0000C89F800C088F800C04FF03E
:103CD000010CAEEB030E5FFA8EFEFF1AB645FFB283
:103CE000A0EB030028BFB646C0B2B742A4EB030462
:103CF00028BF3746E4B2B04228BF3046A64228BFAC
:103D0000264603EB0E0415F80EE00C71DC19EF5D8E
:103D10004C712C5C184488712404A85D44EA072483
:103D200044EA0E0444EA00643344CB71002082F874
:103D300004C01460BDE8F08F4FF0000B4FF0FF3669
:103D400001235D4682E70D4D4D26BAE74FF0000C8A
:103D50004FF0FF366346654687E700BF0100090064
:103D600007000500B4E200004207002041070020E0
:103D7000070009001BE20000FAE2000066E2000012
:103D80002DE9F74F1F469DF9343013F17F0F04469C
:103D90000D46164617D107F07BFEC0F30720FCF74F
:103DA00071FC804694F86F00FCF76CFC01464046BD
:103DB000FCF7B6FB7F49FCF7BDFC7F49FCF7B2FB83
:103DC000FCF77EFE43B25F2B10DDD4F8981069B18A
:103DD00021F47023C1F30341023921EAE17143EA7E
:103DE000014300227549204607F056FD74494FF003
:103DF0001A130022204607F04FFD4FF00008714BC8
:103E0000714A7249204607F034FE7149CDF80080AE
:103E1000FE234246204607F090FA6E4902222046D1
:103E200007F0E7FA032821D16B494246204607F004
:103E3000E0FA40F0030368498146DBB2424620467F
:103E400007F053FD654A66494FF40003204607F02A
:103E500010FE634943466FF40002204607F009FE56
:103E60005D494B464246204607F03FFD5D4B5E49AB
:103E7000DFF878A1DFF878B10022204607F00CFDCA
:103E800041F63C7300224FF41021204607F004FD58
:103E9000584914230122204607F027FD56494FF4C4
:103EA00060236FF47F02204607F0E3FD534B544A32
:103EB0005449204607F0DDFD4FF080634FF0FF329C
:103EC0004FF4E021204607F0D4FD4F492B021F227A
:103ED000204607F0CEFD4D494FF480534FF0FF329E
:103EE000204607F0C6FD374B00224FF4E021204664
:103EF00007F0D2FC304607F0BCF84FF00008B84598
:103F000002D16FF001003BE041490022204607F05A
:103F100070FA002281465146204607F06AFA00F006
:103F20000302032A2FD109F04603462B2BD12A493D
:103F300002234FF6FF72204607F08AFD28494FF40E
:103F400080036FF40002204607F093FD244900230C
:103F50006FF48002204607F08CFD00231A461B49AF
:103F6000204607F099FC00231A4620464FF4E02132
:103F700007F092FC0C9B002083F80080C4F8A0504E
:103F800003B0BDE8F08F42070ED501356D08013D45
:103F90001D492B025A46204607F06BFD304607F0BC
:103FA00068F808F10108AAE783075CBF6D000135D6
:103FB000EEE700BF6666863F0000B04140000700A4
:103FC0004800070000C00204FF3FFAFB040007009E
:103FD0001400010030000F0004001100FFFE7FFFFD
:103FE000080011003411071C1C0007003C000700EA
:103FF000FF00C0FF5000070018000700FC00080089
:1040000000FEF7FF08000900040009001000090085
:104010000C000900F0B5022285B00D465C4904464B
:1040200007F0E7F9032800F2B08094F87730AB424C
:1040300004D1032808D1002005B0F0BD032803D126
:1040400002212046FFF78EF952490022204607F050
:10405000D0F9092D00F0FE031AD04E490022204667
:1040600007F043FC4C4B4D490022204607F014FC5E
:1040700041F63C7300224FF41021204607F016FC55
:1040800094F87730AB4225D02046FEF7DDF821E0EA
:10409000404943F001030022204607F026FC404B34
:1040A0003E490022204607F0F7FB40F63C73002211
:1040B0004FF41021204607F0F9FB94F87730092BD4
:1040C00008D094F89A3000933649F0230222204613
:1040D00007F033F93449354F14230122204607F005
:1040E00004FC33490E230222204607F0FEFB2F4931
:1040F00081230022204607F0F8FB022601212046FA
:10410000FFF730F960B302212046FFF72BF9092DA4
:104110000CBF40F6397341F6397300224FF4102179
:10412000204607F0C3FB4FF400234FF0FF3239461F
:10413000204607F09EFC012E16D102212046FFF7F3
:1041400011F90022092D8DF80F200DF10F030DD16B
:104150000093D4F8A41014232046FEF7E9FF80B999
:10416000002084F8775067E70126C7E794F97010BC
:10417000CDE900312046D4F8A0101423FFF700FE4B
:10418000EDE76FF001000025EBE76FF0080053E763
:1041900030000F00140001003411071C1C00070040
:1041A0003400011C4000070050000700080009000F
:1041B000180007002DE9F3474B7991F80080182B80
:1041C00004460D4600F20D810E79182E94BF00268C
:1041D000012695F80890B5F8017009F1FF33D3F185
:1041E000000949EB0309B4F8783023F0E003A4F8A0
:1041F00078302B7A84F873306A7B934B02FB03335D
:10420000DB0BA4F87A302B7B84F87D30204607F056
:104210003FFCC0F30720FCF735FA824694F86F00A4
:10422000FCF730FA01465046FCF77AF98749FCF76B
:1042300081FA8749FCF776F9FCF742FC013740B276
:10424000FF0000284FEA0919BFB284F87000C0F2DD
:10425000CA8094F87130002B00F0C58001212046FF
:1042600007F0C3FC2A7BAB7B120302F4304242EA24
:10427000090242EA03426B7A5B0103F02003134315
:104280001021744A204607F0F4FB6B7B84F89230CF
:10429000A97B84F89110002E00F0A780B4F8783044
:1042A0006D4943F06003A4F878306FF4C0524FF4C6
:1042B0004063204607F0DDFB684940F206330022E8
:1042C000204607F0E9FA00231A464FF00E11204667
:1042D00007F0E2FA624B63490022204607F0DCFA5D
:1042E0009D23614A6149204607F0C3FBEB780093A8
:1042F0000022FC234FF4C021204607F01EF86B7B00
:1043000000224FF40031204607F0EFFA584B59498C
:104310000022204607F0C0FA57490022204607F045
:104320004EF86B792A7954491B02D200D2B203F4B9
:10433000F8531343AA79520002F0060220F4FF500A
:1043400020F01E00134303430022204607F0A4FA86
:10435000B5F80110204607F000FC002870D1EB7979
:104360006FF480629B022421204607F082FB6B8958
:104370001BB96FF07E02AA72EB726B8902224FF4B6
:10438000C021204607F092FA3C494EF20413204621
:10439000002207F08BFA072384F8A8304146204614
:1043A000FFF738FE00284BD141462046FFF734F98D
:1043B000402F8CBF4FF000534FF0A05320463049A0
:1043C0006FF07F4207F055FB20462E4B2E4900220E
:1043D00007F062FA0121204602B0BDE8F047FEF77F
:1043E000F1BC0126F5E6022139E794F87D206AB197
:1043F000013393FAA3F3B3FA83F3013B9BB2043383
:1044000001269E402046B6B2FFF75AFBB4F878303A
:1044100011493E44FF2ECBBF43F0200343F0A003DD
:10442000A4F87830A4F87830CCBF4FF480634FF410
:10443000A0534EF2FF72204607F00AFB942350E788
:1044400002B0BDE8F08700BF686602006666863F7E
:104450000000B041CF4FFCFF08000B000C000E0025
:104460000A5A0C0012000E0000FFFF3F16000E005B
:10447000CC355FAF0C0006001400010010000900ED
:104480001000060067070E0418000700F8B5812227
:104490000023C0E92833A0F87C30A0F87630A0F8DB
:1044A0007830C0F8983080F8A830A0F89030A0F8A4
:1044B0006E30A0F8702080F872300D46042104465A
:1044C000FEF738F8052107462046FEF733F80A21A3
:1044D00006462046FEF72EF8330E03F03003C6F3EF
:1044E0000352C0F30440134384F86C00C4F898707E
:1044F00000F0A48084F8713037B12EB194F86C309C
:1045000013B12046FEF788FD0121204607F06DFB20
:1045100020212046FEF70EF84E4BC61A704270411D
:10452000EF0684F86D000FD406212046FEF702F84E
:104530000D21A0662046FDF7FDFF0E210646204610
:10454000FDF7F8FFC4E91860680606D40821204684
:10455000FDF7F0FF000C84F86E00290605D4092150
:104560002046FDF7E7FF84F86F0094F86F3013B929
:10457000852384F86F3094F86E3013B9742384F86F
:104580006E301F212046FDF7D5FF1E2184F87400F0
:104590002046FDF7CFFF10F03F0308BF2E232E4922
:1045A00084F875300022204607F09FF93521204617
:1045B000FDF7C0FF0546002847D0034600222749E3
:1045C000204607F069F9EB0C05F01F0203F0200309
:1045D0001343C5F30D25C4F8A430C4F8A05094F9D2
:1045E00070307F3319D1204607F052FAC0F307200C
:1045F000FCF748F8054694F86F00FCF743F80146CD
:104600002846FBF78DFF1649FCF794F81549FBF790
:1046100089FFFCF755FA84F87000134B13492046C4
:10462000002207F039F900221021204606F0C7FECB
:10463000C0F3800084F890000020F8BD4FF486702D
:10464000FDF704FD84F8720056E70F220B23C4E93E
:104650002823C4E7400200101400090004000900E8
:104660006666863F0000B04167070E041800070029
:104670002DE9F04F054691B016461C46B72901F2C8
:10468000F084DFE811F024092E09B800BE00D20042
:10469000DA0020012C013801FA00E2004A0152013F
:1046A0005901600167016D01750178017F01FA010F
:1046B00007020B0216021A023F0247024B02540283
:1046C00057025902680272027C028502B802AF02E8
:1046D000A6028E029A02E3029901B401C201C90145
:1046E000DE0153085808C502FD02000308030C034D
:1046F00016031F0328032F034D0358036203BC0254
:104700006C0374038603A003C50303040B0437047E
:1047100044045B044B0463046A0481049F04B204F0
:10472000C404D404DC0426055D052E056006880655
:10473000D506DA060507190733073C0745076A0758
:104740007207780780078C079807A107A907B107A8
:10475000BB07C507CA07E807F207FC0706082308D6
:104760002D0841084A085E08CA08D308DD08E70892
:104770003509F0081A097D069908A008BB08440B02
:1047800096098C093D09470951095B0965096F09BB
:10479000790982096D0AA60AD90AFB0AF10B190CDC
:1047A0001801A3094F0A5A0A650A990CEE0CEE0C7F
:1047B0009E0CC40CEA0CEE0CEE0CEE0CEE0CEE0CA7
:1047C000EE0CEE0CEE0CEE0CEE0CEE0CEE0CEE0C19
:1047D000EE0CEE0CEE0CEE0C0F0BEE0CEE0CEE0CE9
:1047E0002B0B770B870B930BA00B590BEE0CBA0B13
:1047F000B00BCC0BC40B43689847002011B0BDE848
:10480000F08FB049022206F0F4FD0328F5D906F036
:1048100045FC00230446009328461A46194607F033
:1048200031F8204606F03CFCE7E7002CE5D0217883
:1048300011B0BDE8F04FFEF745BA002CDDD023687B
:1048400000222C2107F028F8D7E723689E49002290
:1048500007F022F863689D492846002207F01CF8FB
:10486000A3689B492846002207F016F8E368994997
:104870000022284607F010F8BFE7002CBDD0626880
:104880002388032AB9D8DFE802F002070C11924905
:10489000002207F00BF8B0E78F49022207F006F874
:1048A000ABE78E49002207F001F8A6E78B49022208
:1048B00006F0FCFFA1E7002C9FD023688849002266
:1048C00006F0EAFF99E7002C97D0237885495B0032
:1048D00003F006036FF0060207F0CBF88DE7002C1B
:1048E0008BD023787F49DB0003F0F8036FF0F802E8
:1048F00007F0BFF881E7002C3FF47FAF23787949B8
:104900001B0203F4F8536FF4F85207F0B2F895F86D
:1049100077102846FEF780FE6FE773494FF4803327
:104920004FF0FF3207F0A5F867E7002C3FF465AFC2
:1049300090F87430237060E7002C3FF45EAF90F87D
:104940006E30237059E7002C3FF457AF90F86F306A
:10495000237052E7002C3FF450AF836E23604CE786
:10496000002C3FF44AAFD0E91823C4E9002344E700
:1049700006F0C7FF41E7002C3FF43FAF2168FDF789
:1049800085FC3AE7002C3FF438AF2678646866B1BE
:10499000402300930022FF23102106F0CEFC022EBC
:1049A00000D12C6285F87C6027E70096BF23324651
:1049B000102106F0C2FCF5E7002C3FF41EAF66683C
:1049C00023784A49032206F090FF46B14FF4812331
:1049D0004FF0FF321021284607F04BF80DE7334621
:1049E0004FF2FF721021284607F032F805E7002247
:1049F000114606F0E4FCAB681A685B685040184248
:104A000014BF4FF0FF300020F8E6002C3FF4F5AE65
:104A10002178FDF755FEF0E60121FDF7ADFD46B129
:104A200033494FF400634FF6FF72284607F010F841
:104A3000E3E62F4933464FF2FF72284607F008F8A5
:104A4000DBE60121FDF798FD06F00103002B4FF294
:104A5000FF734FF6FF7212BF4FF400631A46002334
:104A6000B10758BF22F4805221494CBF43F4805310
:104A700092B2284606F0ECFFBFE62AB11D4B1E4954
:104A8000022206F009FFB8E61C4B1B49022206F081
:104A900003FFB2E61146FDF70FFCAEE6002C3FF433
:104AA000ACAE1749002206F0A4FC00F03F002070D5
:104AB000A3E62146FDF720FC9FE62146FDF740FCDA
:104AC0009BE600BF30000F005400010058000100B9
:104AD0005C00010060000100180001001C000100E2
:104AE0000C00010014000100040011000800010086
:104AF000080011007488D204100011001408D200BC
:104B00001C00070001230093B749FF23002206F091
:104B100014FC72E61146FDF737FC6EE6FEF794FAD8
:104B20000C21284611B0BDE8F04FFEF7C5BEFEF7D8
:104B30008BFA62E6D1B2F4E7002C3FF45EAE237844
:104B400080F87D301B0303F4304344F6FF721021DC
:104B500006F07EFF51E6002C3FF44FAE2388002282
:104B60004FF4602106F0A2FE47E6002C3FF445AE6C
:104B700000224FF4602106F031FC20803DE6002C3D
:104B80003FF43BAE23889949002206F08FFE34E6BD
:104B9000002C3FF432AE9549002206F01FFC208025
:104BA0002BE6002C3FF429AE23680093A388E2880B
:104BB0004FF4B01106F066FE1FE6002C3FF41DAE68
:104BC00023680093A388E2884FF4B01106F0EEFB4F
:104BD00013E6002C3FF411AEE388A2882168FDF7AC
:104BE00055FC0AE6002C3FF408AEE3882268A18851
:104BF000FDF732FE01E6114606F0D7FEFDE5002C7A
:104C00003FF4FBAD237962882188FEF78BFDF4E544
:104C1000002C3FF4F2AD90F87630012B10D0032B2E
:104C200011D10C224FF4F011284606F0D7FBC0F347
:104C30000C03C70448BFA3F500531BB22380DCE577
:104C40006B490022F0E76B490022EDE7002C3FF4AE
:104C5000D4AD0CAB009300220323674906F0A6FBFA
:104C60009DF831209DF83230120202EB03429DF88C
:104C70003030D602134448BFA3F500132360BCE5CF
:104C8000FDF74CFDB9E5002C3FF4B7AD6188FEF7A8
:104C9000B9FD2070B1E5214606F0B7FBADE5002C6B
:104CA0003FF4ABAD2279216811B0BDE8F04F06F0BA
:104CB0003DBD002C3FF4A1AD0122742106F07FFB25
:104CC00020609AE5002C3FF498AD0022742106F094
:104CD00076FB206091E5009405230022742106F004
:104CE00065FB8AE5002C3FF488AD90F87630012B07
:104CF00010D0032B11D116224FF4F011284606F0E4
:104D00006DFBC0F30D00850448BFA0F5804000B2E4
:104D1000208072E539490222F0E739490222EDE7A5
:104D2000062338490094002206F040FB637903F023
:104D30000103637161E5002C3FF45FAD01224FF088
:104D4000081106F056FB207057E5002C3FF455ADD6
:104D500000224FF0081106F04CFB20704DE5002CAE
:104D60003FF44BADA2882168FEF792FB45E5002C8D
:104D70003FF443AD2668A48831462246FEF788FBFF
:104D800021462846FDF7D6FB301A18BF4FF0FF30FA
:104D900034E50121FDF7F0FB022E07D1002300933B
:104DA0001949FE230122284606F0C7FA00231A46B5
:104DB0002846164906F099FD144902230022284688
:104DC00006F093FD19E5002C3FF417AD26882278F4
:104DD0004FF48171FDF7E6FC320A40F203112846D8
:104DE000FDF7E0FC09E500BF04000200040001003B
:104DF0000C00180020000C00290006001400180008
:104E00001C000C0018000C000800110004000A002F
:104E1000002C3FF4F2AC10230022BB490093FF2387
:104E200006F08BFA4FF482712846FDF799FC00F0EA
:104E3000E0073A464FF482712846FDF7B3FC47F08D
:104E400004024FF482712846FDF7ACFC022006F004
:104E500012F94FF487712846FDF782FC40F20F11DA
:104E600006462846FDF77CFC3A4680464FF48271A0
:104E70002846FDF797FC0022A3490092EF2328461D
:104E800046EA082606F059FA2680B6E4002C3FF4DC
:104E9000B4ACA2782188FDF7B1FCAEE4FDF73EFC8E
:104EA000012006F0E8F80323984900930022FF232D
:104EB000284606F042FA00231A464FF48811284685
:104EC00006F013FD012006F0D6F800238122C5E983
:104ED0002833A5F87C30A5F87630A5F87830A5F809
:104EE000702085F87230C5F8983085F8A830A5F89C
:104EF000903082E4002C3FF480AC2378844903F0A6
:104F00003F0380F87530002206F0EFFC75E4002CBA
:104F10003FF473AC90F8753023706EE400220121E9
:104F2000FEF720FC2846FEF763FC2846FDF742FF0B
:104F30000F2201212846FEF799FD5EE4002C3FF484
:104F40005CACD4E90012FEF791FD56E4002C3FF46E
:104F500054AC06F09DFD20804FE4002C3FF44DAC96
:104F60002079FBF78FFB064695F86F00FBF78AFB6D
:104F700001463046FBF7D4FA6649FBF7DBFB66498E
:104F8000FBF7D0FA206038E4002C3FF436AC2079EF
:104F9000FBF778FB064695F86E00FBF773FB0146BE
:104FA0003046FBF7BDFA5D49FBF7C4FB4FF0834188
:104FB000FBF7C0FB5A49FBF771FC5A49FBF7B2FA01
:104FC00020601AE4002C3FF418AC2468012122462A
:104FD000FEF7C8FB2846FEF70BFC2846FDF7EAFE65
:104FE00021462846FDF78CFA07E400220092EF23C1
:104FF0004D4906F0A2F92846FDF75CFE284601213E
:10500000FEF764FB2846FDF773FAFFF7F6BB0022B4
:105010001146FEF72BFD2846FDF74CFE28460121E0
:10502000FEF754FB2846FDF763FAFFF7E6BB0022C4
:105030003D490092EF2306F080F9FFF7DEBB002C1C
:105040003FF4DBAB394966682788002206F0B7F9E0
:105050000022012104462846FEF784FB2846FEF77D
:10506000C7FB2846FDF7A6FE2EB130493346002285
:10507000284606F011FC28462D4B2E49002206F04A
:105080000BFC2D494FF0DD330022284606F004FCCE
:10509000384605F0EEFF00231A462846254906F05B
:1050A000FBFB00231A462449284606F0F5FB284658
:1050B000FDF700FE2846FDF71BFA28460121FEF702
:1050C00005FB1A4923460022284606F0E5FBFFF7B8
:1050D00094BB002C3FF491AB2168FDF711FAFFF768
:1050E0008CBB1649002206F079F9C0F30B030105C9
:1050F0004ABFA3F5805018B200B22080B5F97A30CB
:10510000C01AFFF77BBB00BF480007000400110076
:10511000140009006666863F0000B041CDCCCC3E4D
:1051200000007F430000404024000F000C000100FD
:105130000F00000F280007003800070008000200D9
:10514000002C3FF45AAB6668227AF37CFF2B00F008
:10515000F4803368002A40F0958000930C23BC490A
:10516000284606F08FFB337BF189B27C1944002A74
:1051700040F0B980307CF27C002840F0C580C2F15C
:105180007D02914200F2BA804FF4B017726800922B
:1051900039460022284606F075FBB168F389327B58
:1051A00000912846394606F06DFB327C531E012BD8
:1051B00005D895F87630032B14BF01220222737CA8
:1051C000591E012900F2A88095F87630032B14BFF0
:1051D0000123022342EA43339E499F4F002228467F
:1051E00006F05AFBF3899D4A9D4902EAC312337BBC
:1051F00003F07F0313432846002206F04DFB994934
:1052000001230022284606F070FB0022394628467A
:1052100006F0EFF810F0050F8046F6D003468E49F1
:105220000022284608F03F0708F00F0806F05DFB53
:10523000B8F1010F22D1B37C012B1FD1737C5A1E10
:10524000012A73D895F87630032B14BF4FF49018C9
:105250004FF4981872683AB1337B2BB100924146F3
:105260000022284606F0A2F8B16839B1F3892BB1C3
:10527000327B00912846414606F098F87BB22370B5
:10528000FFF7BBBA9A7AF1898DF830205A7A8DF8F7
:1052900031201A7A8DF83220DA798DF833209A7914
:1052A0008DF834205A798DF835201A798DF836200A
:1052B000DA788DF837209A788DF838205A788DF87A
:1052C00039201A788DF83A2000228DF83B20ADF86D
:1052D0003C10197B8DF83E10DB7A8DF83F300CAB1B
:1052E000009310233BE7012A2AD1727CF37C42B160
:1052F000C3F57F73013399427FF657AF4FF0FF3309
:10530000BDE7C3F17D03F6E7C2F57F720232914239
:10531000F4D84FF4A01739E7042B7FF45BAFF18981
:1053200010297FF657AF6FF00303A8E7032B14BFD4
:105330004FF4B0184FF4A0188CE76FF002039EE70B
:105340006FF001039BE7A379E179227ADB0043EA5E
:10535000410313436279444943EA8213227943EAC1
:10536000C213E27843EA0223A27843EAC2236278B6
:1053700043EA02339BB2002206F098FAFFF73DBAE7
:10538000002C3FF43AAA637813B15B08013BDBB20F
:105390002370FFF732BA3549002206F010F8C0F347
:1053A0000B03C0F30B403249238060800022284663
:1053B00006F005F8C0F30B03C0F30B40A3802D49A2
:1053C000E0800022284605F0FAFF2072000C2A49EE
:1053D00060720022284605F0F2FFC0F30B43C0F3D1
:1053E0000B002649A38160810022284605F0E7FFD3
:1053F000C0F30B43A4F80F302149A07300222846C4
:1054000005F0DDFF6074000C1E49A07400222846E0
:1054100005F0D5FF0022C0F30B00A4F813001A49D1
:105420006275A275284605F0E4FFE075FFF7E5B95F
:10543000114606F091FAFFF7E0B9002C3FF4DDA920
:1054400023881249002206F031FAFFF7D6B900BFCF
:1054500034000100440001005000010080FF010001
:10546000480001004C0001003000010004000F0062
:1054700008000F000C000F0010000F0014000F00B8
:1054800018000F001C000F0028000F000400060089
:10549000002C3FF4B2A92368A2883BB122F0F003AC
:1054A000CB49002206F002FAFFF7A7B9C8491A460D
:1054B00006F0FCF9FFF7A1B9002C3FF49EA9236880
:1054C0006BB10022342106F0E7F94FF400734FF678
:1054D000FF721021284606F0BBFAFFF78EB94FF68F
:1054E000FF52102106F0B4FAFFF787B9002C3FF401
:1054F00084A96188FDF734F92070FFF77EB9002C8C
:105500003FF47BA9A2782188FDF74CF9FFF775B924
:10551000012AB04B90F87620AF4908BF1946AF4B2F
:1055200018BF4FF00C13012A0DD0032A12D100220C
:105530004FF4F01105F052FF2080003818BF012011
:105540004042FFF75BB90222284605F047FFC0F34F
:10555000CF10F1E702221946F6E7002C3FF44DA9DF
:105560002178FEF771F8FFF748B9114611B0BDE890
:10557000F04FFDF7F7BE0094042300221C2105F034
:1055800015FFFFF73AB9002C3FF437A90222442156
:1055900005F024FFC0F300202070FFF72EB9002C87
:1055A0003FF42BA90022442105F023FF00F0010065
:1055B0002070FFF722B9002C3FF41FA962882188D0
:1055C00006F0B1F9FFF719B900940823002204216D
:1055D00006F058F9FFF711B90094082300220421BE
:1055E00005F0E4FEFFF709B9002C3FF406A9238873
:1055F00002220C2106F05AF9FFF7FFB8002C3FF405
:10560000FCA8238800220C2106F050F9FFF7F5B81A
:105610002146FDF71DFBFFF7F0B890F876300094B7
:10562000012B0AD0032B4FF005030DD120224FF49C
:10563000F01105F0BBFEFFF7E0B869490523002231
:1056400005F0B4FEFFF7D9B800224FF4402105F071
:10565000ADFEFFF7D2B8002204F8012B042300941A
:10566000702105F0A3FEFFF7C8B8002C3FF4C5A8D1
:105670000122642105F0A3FE2060FFF7BEB8002CD4
:105680003FF4BBA80022642105F099FE2060FFF7DB
:10569000B4B890F876300094012B0AD0032B4FF069
:1056A00005030DD128224FF4F01105F07FFEFFF71E
:1056B000A4B84C490523002205F078FEFFF79DB8F9
:1056C0004949002205F072FEFFF797B8002C3FF41D
:1056D00094A800221C2105F072FE2060FFF78DB80F
:1056E000002C3FF48AA867682688247A07EB840494
:1056F000A7423FF482A831462846FCF71BFF01363B
:1057000047F8040BB6B2F3E7002C3FF476A82188E3
:1057100011B0BDE8F04F06F020BA002C3FF46DA8A0
:10572000217811B0BDE8F04F05F019BE11B0BDE809
:10573000F04FFDF7BFB8114611B0BDE8F04FFDF7CF
:1057400041BB002C3FF459A8A678FDF733FB00229B
:1057500011462846FEF706F82846FEF749F806F0F7
:105760003F032249224E0022284606F0BEF80123BC
:1057700000931F49FF230022284605F0DEFD00228A
:105780003146284605F035FE10F00107F7D13A46BC
:105790001849284605F022FE06462846FCF7A8FED2
:1057A00039462846FDF792FFC6F30B062846FDF75B
:1057B00081FA2680FFF721B80F49002211B0BDE819
:1057C000F04F05F0FCBD11B0BDE8F04F06F06EB92A
:1057D0001A001100340018002C00180014000C00EE
:1057E000200018002800180008000C001C0007000A
:1057F00010000800140008000C000900D6B2022EA8
:10580000D4BF3603033EBC4ABC49D4BF46F48073C0
:10581000730006F02EF9FEF7F0BF002C3EF4EDAF5A
:10582000D4E9001206F0C7F9FEF7E7BF002C3EF4FA
:10583000E4AF2388B249002206F038F8FEF7DDBF56
:10584000002C3EF4DAAFAE49002205F0C7FD2080FF
:10585000FEF7D3BF002C3EF4D0AF62682188FDF77D
:10586000CBFBFEF7CABF002C3EF4C7AF66782478A6
:10587000CCB9012380F87630A2491823224606F0DD
:105880000BF8E8232246A049284606F005F86FF0F9
:105890000802234676B943F480631021284606F0B7
:1058A000E8F8FEF7AABF002380F876304FF0FF3209
:1058B0000823EFE722F48062EFE7002C3EF49DAF6F
:1058C00023680022302105F0E7FFFEF796BF002C89
:1058D0003EF493AF0022314605F071FD2060FEF7E3
:1058E0008CBF23460022314605F0D6FFFEF785BF68
:1058F000002C3EF482AFFCF7BFFC2070FEF77DBFAA
:10590000002C3EF47AAF23680022442105F0C4FF46
:10591000FEF773BF002C3EF470AF238800224821AD
:1059200005F0C4FFFEF769BF002C3EF466AF00220D
:10593000442105F044FD2060FEF75FBF002C3EF4DB
:105940005CAF0022482105F049FD2060FEF755BFFD
:10595000002C3EF452AF23786C49002205F0C5FFBD
:10596000FEF74BBF002C3EF448AF0022442105F067
:1059700040FD2070FEF741BF002C3EF43EAFA11C5D
:10598000FCF768FE2080FEF738BF002C3EF435AFF0
:105990005F49002205F022FD2080FEF72EBF002C7B
:1059A0003EF42BAF5B49002205F009FD2060FEF7B5
:1059B00024BF002C3EF421AF23885649C3F30D03C6
:1059C0004FF4404206F044F8FEF717BF002C3EF4B7
:1059D00014AF237B05932369079363690893059BA1
:1059E000A668A088052B06F00301C6F385021BD12B
:1059F000B0F5B17FDFF8208128BF4FF4B170431DAF
:105A00009BB205280693034638BF0523053B9BB28E
:105A10000428099326D8531CDBB218F80330053B41
:105A200098421FD200232FE040F231139842DFF852
:105A3000EC8028BF1846E2E71CF80170A0EB030ECB
:105A4000774501F1010104DA1F44BBB2CDB2012D4B
:105A5000F2D9002181278C46049189468B464FF06C
:105A6000050A15E3DFF8B8C00023EFE7BCF1000F2B
:105A70001AD018F802209B1A9BB24A4645EA8206C1
:105A8000F6B24FF001325643002208990B80079B73
:105A90001E602260FEF7B1BEBCF1000FE9D1DDF857
:105AA00018E09E4500F218830029E7D03F2A0ED166
:105AB000032D1AD0022D02D10599092915D01849B4
:105AC000495D1944013581428BB2EDB20DDD4FF0D5
:105AD000000C18F80210591A8BB2511E01F03F0247
